{"contracts/ClaimWeek.sol":{"ClaimWeek":{"abi":[{"inputs":[{"internalType":"uint256","name":"_startTime","type":"uint256"},{"internalType":"uint256","name":"_endTime","type":"uint256"},{"internalType":"uint256","name":"_weeklyReward","type":"uint256"}],"stateMutability":"nonpayable","type":"constructor"},{"anonymous":false,"inputs":[{"indexed":true,"internalType":"address","name":"user","type":"address"},{"indexed":false,"internalType":"uint256","name":"weeksClaimed","type":"uint256"},{"indexed":false,"internalType":"uint256","name":"reward","type":"uint256"},{"indexed":false,"internalType":"uint256","name":"timestamp","type":"uint256"}],"name":"Claimed","type":"event"},{"inputs":[],"name":"claim","outputs":[],"stateMutability":"nonpayable","type":"function"},{"inputs":[],"name":"endTime","outputs":[{"internalType":"uint256","name":"","type":"uint256"}],"stateMutability":"view","type":"function"},{"inputs":[{"internalType":"uint256","name":"timestamp","type":"uint256"}],"name":"getWeekNumber","outputs":[{"internalType":"uint256","name":"","type":"uint256"}],"stateMutability":"view","type":"function"},{"inputs":[{"internalType":"address","name":"","type":"address"}],"name":"lastClaimedWeek","outputs":[{"internalType":"uint256","name":"","type":"uint256"}],"stateMutability":"view","type":"function"},{"inputs":[],"name":"owner","outputs":[{"internalType":"address","name":"","type":"address"}],"stateMutability":"view","type":"function"},{"inputs":[],"name":"startTime","outputs":[{"internalType":"uint256","name":"","type":"uint256"}],"stateMutability":"view","type":"function"},{"inputs":[],"name":"weeklyReward","outputs":[{"internalType":"uint256","name":"","type":"uint256"}],"stateMutability":"view","type":"function"},{"inputs":[{"internalType":"uint256","name":"amount","type":"uint256"}],"name":"withdraw","outputs":[],"stateMutability":"nonpayable","type":"function"},{"stateMutability":"payable","type":"receive"}],"evm":{"bytecode":{"linkReferences":{},"object":"608060405234801561001057600080fd5b50604051610f93380380610f938339818101604052810190610032919061014e565b818310610074576040517f08c379a000000000000000000000000000000000000000000000000000000000815260040161006b906101fe565b60405180910390fd5b4283116100b6576040517f08c379a00000000000000000000000000000000000000000000000000000000081526004016100ad9061026a565b60405180910390fd5b336000806101000a81548173ffffffffffffffffffffffffffffffffffffffff021916908373ffffffffffffffffffffffffffffffffffffffff16021790555082600181905550816002819055508060038190555050505061028a565b600080fd5b6000819050919050565b61012b81610118565b811461013657600080fd5b50565b60008151905061014881610122565b92915050565b60008060006060848603121561016757610166610113565b5b600061017586828701610139565b935050602061018686828701610139565b925050604061019786828701610139565b9150509250925092565b600082825260208201905092915050565b7f737461727454696d65206d757374206265206265666f726520656e6454696d65600082015250565b60006101e86020836101a1565b91506101f3826101b2565b602082019050919050565b60006020820190508181036000830152610217816101db565b9050919050565b7f737461727454696d65206d75737420626520696e207468652066757475726500600082015250565b6000610254601f836101a1565b915061025f8261021e565b602082019050919050565b6000602082019050818103600083015261028381610247565b9050919050565b610cfa806102996000396000f3fe60806040526004361061007f5760003560e01c806378e979251161004e57806378e97925146101335780638cbe096e1461015e5780638da5cb5b1461019b578063da0adedf146101c657610086565b80631bfca4df1461008b5780632e1a7d4d146100c85780633197cbb6146100f15780634e71d92d1461011c57610086565b3661008657005b600080fd5b34801561009757600080fd5b506100b260048036038101906100ad91906106d9565b6101f1565b6040516100bf919061071f565b60405180910390f35b3480156100d457600080fd5b506100ef60048036038101906100ea9190610766565b610209565b005b3480156100fd57600080fd5b50610106610301565b604051610113919061071f565b60405180910390f35b34801561012857600080fd5b50610131610307565b005b34801561013f57600080fd5b506101486105d1565b604051610155919061071f565b60405180910390f35b34801561016a57600080fd5b5061018560048036038101906101809190610766565b6105d7565b604051610192919061071f565b60405180910390f35b3480156101a757600080fd5b506101b061064c565b6040516101bd91906107a2565b60405180910390f35b3480156101d257600080fd5b506101db610670565b6040516101e8919061071f565b60405180910390f35b60046020528060005260406000206000915090505481565b60008054906101000a900473ffffffffffffffffffffffffffffffffffffffff1673ffffffffffffffffffffffffffffffffffffffff163373ffffffffffffffffffffffffffffffffffffffff1614610297576040517f08c379a000000000000000000000000000000000000000000000000000000000815260040161028e9061081a565b60405180910390fd5b60008054906101000a900473ffffffffffffffffffffffffffffffffffffffff1673ffffffffffffffffffffffffffffffffffffffff166108fc829081150290604051600060405180830381858888f193505050501580156102fd573d6000803e3d6000fd5b5050565b60025481565b60015442101561034c576040517f08c379a000000000000000000000000000000000000000000000000000000000815260040161034390610886565b60405180910390fd5b6002544210610390576040517f08c379a0000000000000000000000000000000000000000000000000000000008152600401610387906108f2565b60405180910390fd5b600061039b426105d7565b90506000600460003373ffffffffffffffffffffffffffffffffffffffff1673ffffffffffffffffffffffffffffffffffffffff168152602001908152602001600020549050818110610423576040517f08c379a000000000000000000000000000000000000000000000000000000000815260040161041a90610984565b60405180910390fd5b6000818361043191906109d3565b905082600460003373ffffffffffffffffffffffffffffffffffffffff1673ffffffffffffffffffffffffffffffffffffffff168152602001908152602001600020819055506000600354826104879190610a07565b9050804710156104cc576040517f08c379a00000000000000000000000000000000000000000000000000000000081526004016104c390610a95565b60405180910390fd5b60003373ffffffffffffffffffffffffffffffffffffffff16826040516104f290610ae6565b60006040518083038185875af1925050503d806000811461052f576040519150601f19603f3d011682016040523d82523d6000602084013e610534565b606091505b5050905080610578576040517f08c379a000000000000000000000000000000000000000000000000000000000815260040161056f90610b47565b60405180910390fd5b3373ffffffffffffffffffffffffffffffffffffffff167f9cdcf2f7714cca3508c7f0110b04a90a80a3a8dd0e35de99689db74d28c5383e8484426040516105c293929190610b67565b60405180910390a25050505050565b60015481565b6000600154821161061d576040517f08c379a000000000000000000000000000000000000000000000000000000000815260040161061490610c10565b60405180910390fd5b600162093a806001548461063191906109d3565b61063b9190610c5f565b6106459190610c90565b9050919050565b60008054906101000a900473ffffffffffffffffffffffffffffffffffffffff1681565b60035481565b600080fd5b600073ffffffffffffffffffffffffffffffffffffffff82169050919050565b60006106a68261067b565b9050919050565b6106b68161069b565b81146106c157600080fd5b50565b6000813590506106d3816106ad565b92915050565b6000602082840312156106ef576106ee610676565b5b60006106fd848285016106c4565b91505092915050565b6000819050919050565b61071981610706565b82525050565b60006020820190506107346000830184610710565b92915050565b61074381610706565b811461074e57600080fd5b50565b6000813590506107608161073a565b92915050565b60006020828403121561077c5761077b610676565b5b600061078a84828501610751565b91505092915050565b61079c8161069b565b82525050565b60006020820190506107b76000830184610793565b92915050565b600082825260208201905092915050565b7f426f742074686520636f6e7472616374206f776e657200000000000000000000600082015250565b60006108046016836107bd565b915061080f826107ce565b602082019050919050565b60006020820190508181036000830152610833816107f7565b9050919050565b7f436c61696d696e6720686173206e6f7420737461727465642079657400000000600082015250565b6000610870601c836107bd565b915061087b8261083a565b602082019050919050565b6000602082019050818103600083015261089f81610863565b9050919050565b7f436c61696d696e6720706572696f642068617320656e64656400000000000000600082015250565b60006108dc6019836107bd565b91506108e7826108a6565b602082019050919050565b6000602082019050818103600083015261090b816108cf565b9050919050565b7f416c726561647920636c61696d656420666f72207468652063757272656e742060008201527f7765656b00000000000000000000000000000000000000000000000000000000602082015250565b600061096e6024836107bd565b915061097982610912565b604082019050919050565b6000602082019050818103600083015261099d81610961565b9050919050565b7f4e487b7100000000000000000000000000000000000000000000000000000000600052601160045260246000fd5b60006109de82610706565b91506109e983610706565b9250828203905081811115610a0157610a006109a4565b5b92915050565b6000610a1282610706565b9150610a1d83610706565b9250828202610a2b81610706565b91508282048414831517610a4257610a416109a4565b5b5092915050565b7f496e73756666696369656e7420636f6e74726163742062616c616e6365000000600082015250565b6000610a7f601d836107bd565b9150610a8a82610a49565b602082019050919050565b60006020820190508181036000830152610aae81610a72565b9050919050565b600081905092915050565b50565b6000610ad0600083610ab5565b9150610adb82610ac0565b600082019050919050565b6000610af182610ac3565b9150819050919050565b7f526577617264207472616e73666572206661696c656400000000000000000000600082015250565b6000610b316016836107bd565b9150610b3c82610afb565b602082019050919050565b60006020820190508181036000830152610b6081610b24565b9050919050565b6000606082019050610b7c6000830186610710565b610b896020830185610710565b610b966040830184610710565b949350505050565b7f74696d657374616d70206d757374206265206265666f7265207374617274546960008201527f6d65000000000000000000000000000000000000000000000000000000000000602082015250565b6000610bfa6022836107bd565b9150610c0582610b9e565b604082019050919050565b60006020820190508181036000830152610c2981610bed565b9050919050565b7f4e487b7100000000000000000000000000000000000000000000000000000000600052601260045260246000fd5b6000610c6a82610706565b9150610c7583610706565b925082610c8557610c84610c30565b5b828204905092915050565b6000610c9b82610706565b9150610ca683610706565b9250828201905080821115610cbe57610cbd6109a4565b5b9291505056fea264697066735822122049663d76008b19808ff6f5335956136ebff16a2f0a083cfaca479ec028c0152864736f6c634300081b0033","opcodes":"PUSH1 0x80 PUSH1 0x40 MSTORE CALLVALUE DUP1 ISZERO PUSH2 0x10 JUMPI PUSH1 0x0 DUP1 REVERT JUMPDEST POP PUSH1 0x40 MLOAD PUSH2 0xF93 CODESIZE SUB DUP1 PUSH2 0xF93 DUP4 CODECOPY DUP2 DUP2 ADD PUSH1 0x40 MSTORE DUP2 ADD SWAP1 PUSH2 0x32 SWAP2 SWAP1 PUSH2 0x14E JUMP JUMPDEST DUP2 DUP4 LT PUSH2 0x74 JUMPI PUSH1 0x40 MLOAD PUSH32 0x8C379A000000000000000000000000000000000000000000000000000000000 DUP2 MSTORE PUSH1 0x4 ADD PUSH2 0x6B SWAP1 PUSH2 0x1FE JUMP JUMPDEST PUSH1 0x40 MLOAD DUP1 SWAP2 SUB SWAP1 REVERT JUMPDEST TIMESTAMP DUP4 GT PUSH2 0xB6 JUMPI PUSH1 0x40 MLOAD PUSH32 0x8C379A000000000000000000000000000000000000000000000000000000000 DUP2 MSTORE PUSH1 0x4 ADD PUSH2 0xAD SWAP1 PUSH2 0x26A JUMP JUMPDEST PUSH1 0x40 MLOAD DUP1 SWAP2 SUB SWAP1 REVERT JUMPDEST CALLER PUSH1 0x0 DUP1 PUSH2 0x100 EXP DUP2 SLOAD DUP2 PUSH20 0xFFFFFFFFFFFFFFFFFFFFFFFFFFFFFFFFFFFFFFFF MUL NOT AND SWAP1 DUP4 PUSH20 0xFFFFFFFFFFFFFFFFFFFFFFFFFFFFFFFFFFFFFFFF AND MUL OR SWAP1 SSTORE POP DUP3 PUSH1 0x1 DUP2 SWAP1 SSTORE POP DUP2 PUSH1 0x2 DUP2 SWAP1 SSTORE POP DUP1 PUSH1 0x3 DUP2 SWAP1 SSTORE POP POP POP POP PUSH2 0x28A JUMP JUMPDEST PUSH1 0x0 DUP1 REVERT JUMPDEST PUSH1 0x0 DUP2 SWAP1 POP SWAP2 SWAP1 POP JUMP JUMPDEST PUSH2 0x12B DUP2 PUSH2 0x118 JUMP JUMPDEST DUP2 EQ PUSH2 0x136 JUMPI PUSH1 0x0 DUP1 REVERT JUMPDEST POP JUMP JUMPDEST PUSH1 0x0 DUP2 MLOAD SWAP1 POP PUSH2 0x148 DUP2 PUSH2 0x122 JUMP JUMPDEST SWAP3 SWAP2 POP POP JUMP JUMPDEST PUSH1 0x0 DUP1 PUSH1 0x0 PUSH1 0x60 DUP5 DUP7 SUB SLT ISZERO PUSH2 0x167 JUMPI PUSH2 0x166 PUSH2 0x113 JUMP JUMPDEST JUMPDEST PUSH1 0x0 PUSH2 0x175 DUP7 DUP3 DUP8 ADD PUSH2 0x139 JUMP JUMPDEST SWAP4 POP POP PUSH1 0x20 PUSH2 0x186 DUP7 DUP3 DUP8 ADD PUSH2 0x139 JUMP JUMPDEST SWAP3 POP POP PUSH1 0x40 PUSH2 0x197 DUP7 DUP3 DUP8 ADD PUSH2 0x139 JUMP JUMPDEST SWAP2 POP POP SWAP3 POP SWAP3 POP SWAP3 JUMP JUMPDEST PUSH1 0x0 DUP3 DUP3 MSTORE PUSH1 0x20 DUP3 ADD SWAP1 POP SWAP3 SWAP2 POP POP JUMP JUMPDEST PUSH32 0x737461727454696D65206D757374206265206265666F726520656E6454696D65 PUSH1 0x0 DUP3 ADD MSTORE POP JUMP JUMPDEST PUSH1 0x0 PUSH2 0x1E8 PUSH1 0x20 DUP4 PUSH2 0x1A1 JUMP JUMPDEST SWAP2 POP PUSH2 0x1F3 DUP3 PUSH2 0x1B2 JUMP JUMPDEST PUSH1 0x20 DUP3 ADD SWAP1 POP SWAP2 SWAP1 POP JUMP JUMPDEST PUSH1 0x0 PUSH1 0x20 DUP3 ADD SWAP1 POP DUP2 DUP2 SUB PUSH1 0x0 DUP4 ADD MSTORE PUSH2 0x217 DUP2 PUSH2 0x1DB JUMP JUMPDEST SWAP1 POP SWAP2 SWAP1 POP JUMP JUMPDEST PUSH32 0x737461727454696D65206D75737420626520696E207468652066757475726500 PUSH1 0x0 DUP3 ADD MSTORE POP JUMP JUMPDEST PUSH1 0x0 PUSH2 0x254 PUSH1 0x1F DUP4 PUSH2 0x1A1 JUMP JUMPDEST SWAP2 POP PUSH2 0x25F DUP3 PUSH2 0x21E JUMP JUMPDEST PUSH1 0x20 DUP3 ADD SWAP1 POP SWAP2 SWAP1 POP JUMP JUMPDEST PUSH1 0x0 PUSH1 0x20 DUP3 ADD SWAP1 POP DUP2 DUP2 SUB PUSH1 0x0 DUP4 ADD MSTORE PUSH2 0x283 DUP2 PUSH2 0x247 JUMP JUMPDEST SWAP1 POP SWAP2 SWAP1 POP JUMP JUMPDEST PUSH2 0xCFA DUP1 PUSH2 0x299 PUSH1 0x0 CODECOPY PUSH1 0x0 RETURN INVALID PUSH1 0x80 PUSH1 0x40 MSTORE PUSH1 0x4 CALLDATASIZE LT PUSH2 0x7F JUMPI PUSH1 0x0 CALLDATALOAD PUSH1 0xE0 SHR DUP1 PUSH4 0x78E97925 GT PUSH2 0x4E JUMPI DUP1 PUSH4 0x78E97925 EQ PUSH2 0x133 JUMPI DUP1 PUSH4 0x8CBE096E EQ PUSH2 0x15E JUMPI DUP1 PUSH4 0x8DA5CB5B EQ PUSH2 0x19B JUMPI DUP1 PUSH4 0xDA0ADEDF EQ PUSH2 0x1C6 JUMPI PUSH2 0x86 JUMP JUMPDEST DUP1 PUSH4 0x1BFCA4DF EQ PUSH2 0x8B JUMPI DUP1 PUSH4 0x2E1A7D4D EQ PUSH2 0xC8 JUMPI DUP1 PUSH4 0x3197CBB6 EQ PUSH2 0xF1 JUMPI DUP1 PUSH4 0x4E71D92D EQ PUSH2 0x11C JUMPI PUSH2 0x86 JUMP JUMPDEST CALLDATASIZE PUSH2 0x86 JUMPI STOP JUMPDEST PUSH1 0x0 DUP1 REVERT JUMPDEST CALLVALUE DUP1 ISZERO PUSH2 0x97 JUMPI PUSH1 0x0 DUP1 REVERT JUMPDEST POP PUSH2 0xB2 PUSH1 0x4 DUP1 CALLDATASIZE SUB DUP2 ADD SWAP1 PUSH2 0xAD SWAP2 SWAP1 PUSH2 0x6D9 JUMP JUMPDEST PUSH2 0x1F1 JUMP JUMPDEST PUSH1 0x40 MLOAD PUSH2 0xBF SWAP2 SWAP1 PUSH2 0x71F JUMP JUMPDEST PUSH1 0x40 MLOAD DUP1 SWAP2 SUB SWAP1 RETURN JUMPDEST CALLVALUE DUP1 ISZERO PUSH2 0xD4 JUMPI PUSH1 0x0 DUP1 REVERT JUMPDEST POP PUSH2 0xEF PUSH1 0x4 DUP1 CALLDATASIZE SUB DUP2 ADD SWAP1 PUSH2 0xEA SWAP2 SWAP1 PUSH2 0x766 JUMP JUMPDEST PUSH2 0x209 JUMP JUMPDEST STOP JUMPDEST CALLVALUE DUP1 ISZERO PUSH2 0xFD JUMPI PUSH1 0x0 DUP1 REVERT JUMPDEST POP PUSH2 0x106 PUSH2 0x301 JUMP JUMPDEST PUSH1 0x40 MLOAD PUSH2 0x113 SWAP2 SWAP1 PUSH2 0x71F JUMP JUMPDEST PUSH1 0x40 MLOAD DUP1 SWAP2 SUB SWAP1 RETURN JUMPDEST CALLVALUE DUP1 ISZERO PUSH2 0x128 JUMPI PUSH1 0x0 DUP1 REVERT JUMPDEST POP PUSH2 0x131 PUSH2 0x307 JUMP JUMPDEST STOP JUMPDEST CALLVALUE DUP1 ISZERO PUSH2 0x13F JUMPI PUSH1 0x0 DUP1 REVERT JUMPDEST POP PUSH2 0x148 PUSH2 0x5D1 JUMP JUMPDEST PUSH1 0x40 MLOAD PUSH2 0x155 SWAP2 SWAP1 PUSH2 0x71F JUMP JUMPDEST PUSH1 0x40 MLOAD DUP1 SWAP2 SUB SWAP1 RETURN JUMPDEST CALLVALUE DUP1 ISZERO PUSH2 0x16A JUMPI PUSH1 0x0 DUP1 REVERT JUMPDEST POP PUSH2 0x185 PUSH1 0x4 DUP1 CALLDATASIZE SUB DUP2 ADD SWAP1 PUSH2 0x180 SWAP2 SWAP1 PUSH2 0x766 JUMP JUMPDEST PUSH2 0x5D7 JUMP JUMPDEST PUSH1 0x40 MLOAD PUSH2 0x192 SWAP2 SWAP1 PUSH2 0x71F JUMP JUMPDEST PUSH1 0x40 MLOAD DUP1 SWAP2 SUB SWAP1 RETURN JUMPDEST CALLVALUE DUP1 ISZERO PUSH2 0x1A7 JUMPI PUSH1 0x0 DUP1 REVERT JUMPDEST POP PUSH2 0x1B0 PUSH2 0x64C JUMP JUMPDEST PUSH1 0x40 MLOAD PUSH2 0x1BD SWAP2 SWAP1 PUSH2 0x7A2 JUMP JUMPDEST PUSH1 0x40 MLOAD DUP1 SWAP2 SUB SWAP1 RETURN JUMPDEST CALLVALUE DUP1 ISZERO PUSH2 0x1D2 JUMPI PUSH1 0x0 DUP1 REVERT JUMPDEST POP PUSH2 0x1DB PUSH2 0x670 JUMP JUMPDEST PUSH1 0x40 MLOAD PUSH2 0x1E8 SWAP2 SWAP1 PUSH2 0x71F JUMP JUMPDEST PUSH1 0x40 MLOAD DUP1 SWAP2 SUB SWAP1 RETURN JUMPDEST PUSH1 0x4 PUSH1 0x20 MSTORE DUP1 PUSH1 0x0 MSTORE PUSH1 0x40 PUSH1 0x0 KECCAK256 PUSH1 0x0 SWAP2 POP SWAP1 POP SLOAD DUP2 JUMP JUMPDEST PUSH1 0x0 DUP1 SLOAD SWAP1 PUSH2 0x100 EXP SWAP1 DIV PUSH20 0xFFFFFFFFFFFFFFFFFFFFFFFFFFFFFFFFFFFFFFFF AND PUSH20 0xFFFFFFFFFFFFFFFFFFFFFFFFFFFFFFFFFFFFFFFF AND CALLER PUSH20 0xFFFFFFFFFFFFFFFFFFFFFFFFFFFFFFFFFFFFFFFF AND EQ PUSH2 0x297 JUMPI PUSH1 0x40 MLOAD PUSH32 0x8C379A000000000000000000000000000000000000000000000000000000000 DUP2 MSTORE PUSH1 0x4 ADD PUSH2 0x28E SWAP1 PUSH2 0x81A JUMP JUMPDEST PUSH1 0x40 MLOAD DUP1 SWAP2 SUB SWAP1 REVERT JUMPDEST PUSH1 0x0 DUP1 SLOAD SWAP1 PUSH2 0x100 EXP SWAP1 DIV PUSH20 0xFFFFFFFFFFFFFFFFFFFFFFFFFFFFFFFFFFFFFFFF AND PUSH20 0xFFFFFFFFFFFFFFFFFFFFFFFFFFFFFFFFFFFFFFFF AND PUSH2 0x8FC DUP3 SWAP1 DUP2 ISZERO MUL SWAP1 PUSH1 0x40 MLOAD PUSH1 0x0 PUSH1 0x40 MLOAD DUP1 DUP4 SUB DUP2 DUP6 DUP9 DUP9 CALL SWAP4 POP POP POP POP ISZERO DUP1 ISZERO PUSH2 0x2FD JUMPI RETURNDATASIZE PUSH1 0x0 DUP1 RETURNDATACOPY RETURNDATASIZE PUSH1 0x0 REVERT JUMPDEST POP POP JUMP JUMPDEST PUSH1 0x2 SLOAD DUP2 JUMP JUMPDEST PUSH1 0x1 SLOAD TIMESTAMP LT ISZERO PUSH2 0x34C JUMPI PUSH1 0x40 MLOAD PUSH32 0x8C379A000000000000000000000000000000000000000000000000000000000 DUP2 MSTORE PUSH1 0x4 ADD PUSH2 0x343 SWAP1 PUSH2 0x886 JUMP JUMPDEST PUSH1 0x40 MLOAD DUP1 SWAP2 SUB SWAP1 REVERT JUMPDEST PUSH1 0x2 SLOAD TIMESTAMP LT PUSH2 0x390 JUMPI PUSH1 0x40 MLOAD PUSH32 0x8C379A000000000000000000000000000000000000000000000000000000000 DUP2 MSTORE PUSH1 0x4 ADD PUSH2 0x387 SWAP1 PUSH2 0x8F2 JUMP JUMPDEST PUSH1 0x40 MLOAD DUP1 SWAP2 SUB SWAP1 REVERT JUMPDEST PUSH1 0x0 PUSH2 0x39B TIMESTAMP PUSH2 0x5D7 JUMP JUMPDEST SWAP1 POP PUSH1 0x0 PUSH1 0x4 PUSH1 0x0 CALLER PUSH20 0xFFFFFFFFFFFFFFFFFFFFFFFFFFFFFFFFFFFFFFFF AND PUSH20 0xFFFFFFFFFFFFFFFFFFFFFFFFFFFFFFFFFFFFFFFF AND DUP2 MSTORE PUSH1 0x20 ADD SWAP1 DUP2 MSTORE PUSH1 0x20 ADD PUSH1 0x0 KECCAK256 SLOAD SWAP1 POP DUP2 DUP2 LT PUSH2 0x423 JUMPI PUSH1 0x40 MLOAD PUSH32 0x8C379A000000000000000000000000000000000000000000000000000000000 DUP2 MSTORE PUSH1 0x4 ADD PUSH2 0x41A SWAP1 PUSH2 0x984 JUMP JUMPDEST PUSH1 0x40 MLOAD DUP1 SWAP2 SUB SWAP1 REVERT JUMPDEST PUSH1 0x0 DUP2 DUP4 PUSH2 0x431 SWAP2 SWAP1 PUSH2 0x9D3 JUMP JUMPDEST SWAP1 POP DUP3 PUSH1 0x4 PUSH1 0x0 CALLER PUSH20 0xFFFFFFFFFFFFFFFFFFFFFFFFFFFFFFFFFFFFFFFF AND PUSH20 0xFFFFFFFFFFFFFFFFFFFFFFFFFFFFFFFFFFFFFFFF AND DUP2 MSTORE PUSH1 0x20 ADD SWAP1 DUP2 MSTORE PUSH1 0x20 ADD PUSH1 0x0 KECCAK256 DUP2 SWAP1 SSTORE POP PUSH1 0x0 PUSH1 0x3 SLOAD DUP3 PUSH2 0x487 SWAP2 SWAP1 PUSH2 0xA07 JUMP JUMPDEST SWAP1 POP DUP1 SELFBALANCE LT ISZERO PUSH2 0x4CC JUMPI PUSH1 0x40 MLOAD PUSH32 0x8C379A000000000000000000000000000000000000000000000000000000000 DUP2 MSTORE PUSH1 0x4 ADD PUSH2 0x4C3 SWAP1 PUSH2 0xA95 JUMP JUMPDEST PUSH1 0x40 MLOAD DUP1 SWAP2 SUB SWAP1 REVERT JUMPDEST PUSH1 0x0 CALLER PUSH20 0xFFFFFFFFFFFFFFFFFFFFFFFFFFFFFFFFFFFFFFFF AND DUP3 PUSH1 0x40 MLOAD PUSH2 0x4F2 SWAP1 PUSH2 0xAE6 JUMP JUMPDEST PUSH1 0x0 PUSH1 0x40 MLOAD DUP1 DUP4 SUB DUP2 DUP6 DUP8 GAS CALL SWAP3 POP POP POP RETURNDATASIZE DUP1 PUSH1 0x0 DUP2 EQ PUSH2 0x52F JUMPI PUSH1 0x40 MLOAD SWAP2 POP PUSH1 0x1F NOT PUSH1 0x3F RETURNDATASIZE ADD AND DUP3 ADD PUSH1 0x40 MSTORE RETURNDATASIZE DUP3 MSTORE RETURNDATASIZE PUSH1 0x0 PUSH1 0x20 DUP5 ADD RETURNDATACOPY PUSH2 0x534 JUMP JUMPDEST PUSH1 0x60 SWAP2 POP JUMPDEST POP POP SWAP1 POP DUP1 PUSH2 0x578 JUMPI PUSH1 0x40 MLOAD PUSH32 0x8C379A000000000000000000000000000000000000000000000000000000000 DUP2 MSTORE PUSH1 0x4 ADD PUSH2 0x56F SWAP1 PUSH2 0xB47 JUMP JUMPDEST PUSH1 0x40 MLOAD DUP1 SWAP2 SUB SWAP1 REVERT JUMPDEST CALLER PUSH20 0xFFFFFFFFFFFFFFFFFFFFFFFFFFFFFFFFFFFFFFFF AND PUSH32 0x9CDCF2F7714CCA3508C7F0110B04A90A80A3A8DD0E35DE99689DB74D28C5383E DUP5 DUP5 TIMESTAMP PUSH1 0x40 MLOAD PUSH2 0x5C2 SWAP4 SWAP3 SWAP2 SWAP1 PUSH2 0xB67 JUMP JUMPDEST PUSH1 0x40 MLOAD DUP1 SWAP2 SUB SWAP1 LOG2 POP POP POP POP POP JUMP JUMPDEST PUSH1 0x1 SLOAD DUP2 JUMP JUMPDEST PUSH1 0x0 PUSH1 0x1 SLOAD DUP3 GT PUSH2 0x61D JUMPI PUSH1 0x40 MLOAD PUSH32 0x8C379A000000000000000000000000000000000000000000000000000000000 DUP2 MSTORE PUSH1 0x4 ADD PUSH2 0x614 SWAP1 PUSH2 0xC10 JUMP JUMPDEST PUSH1 0x40 MLOAD DUP1 SWAP2 SUB SWAP1 REVERT JUMPDEST PUSH1 0x1 PUSH3 0x93A80 PUSH1 0x1 SLOAD DUP5 PUSH2 0x631 SWAP2 SWAP1 PUSH2 0x9D3 JUMP JUMPDEST PUSH2 0x63B SWAP2 SWAP1 PUSH2 0xC5F JUMP JUMPDEST PUSH2 0x645 SWAP2 SWAP1 PUSH2 0xC90 JUMP JUMPDEST SWAP1 POP SWAP2 SWAP1 POP JUMP JUMPDEST PUSH1 0x0 DUP1 SLOAD SWAP1 PUSH2 0x100 EXP SWAP1 DIV PUSH20 0xFFFFFFFFFFFFFFFFFFFFFFFFFFFFFFFFFFFFFFFF AND DUP2 JUMP JUMPDEST PUSH1 0x3 SLOAD DUP2 JUMP JUMPDEST PUSH1 0x0 DUP1 REVERT JUMPDEST PUSH1 0x0 PUSH20 0xFFFFFFFFFFFFFFFFFFFFFFFFFFFFFFFFFFFFFFFF DUP3 AND SWAP1 POP SWAP2 SWAP1 POP JUMP JUMPDEST PUSH1 0x0 PUSH2 0x6A6 DUP3 PUSH2 0x67B JUMP JUMPDEST SWAP1 POP SWAP2 SWAP1 POP JUMP JUMPDEST PUSH2 0x6B6 DUP2 PUSH2 0x69B JUMP JUMPDEST DUP2 EQ PUSH2 0x6C1 JUMPI PUSH1 0x0 DUP1 REVERT JUMPDEST POP JUMP JUMPDEST PUSH1 0x0 DUP2 CALLDATALOAD SWAP1 POP PUSH2 0x6D3 DUP2 PUSH2 0x6AD JUMP JUMPDEST SWAP3 SWAP2 POP POP JUMP JUMPDEST PUSH1 0x0 PUSH1 0x20 DUP3 DUP5 SUB SLT ISZERO PUSH2 0x6EF JUMPI PUSH2 0x6EE PUSH2 0x676 JUMP JUMPDEST JUMPDEST PUSH1 0x0 PUSH2 0x6FD DUP5 DUP3 DUP6 ADD PUSH2 0x6C4 JUMP JUMPDEST SWAP2 POP POP SWAP3 SWAP2 POP POP JUMP JUMPDEST PUSH1 0x0 DUP2 SWAP1 POP SWAP2 SWAP1 POP JUMP JUMPDEST PUSH2 0x719 DUP2 PUSH2 0x706 JUMP JUMPDEST DUP3 MSTORE POP POP JUMP JUMPDEST PUSH1 0x0 PUSH1 0x20 DUP3 ADD SWAP1 POP PUSH2 0x734 PUSH1 0x0 DUP4 ADD DUP5 PUSH2 0x710 JUMP JUMPDEST SWAP3 SWAP2 POP POP JUMP JUMPDEST PUSH2 0x743 DUP2 PUSH2 0x706 JUMP JUMPDEST DUP2 EQ PUSH2 0x74E JUMPI PUSH1 0x0 DUP1 REVERT JUMPDEST POP JUMP JUMPDEST PUSH1 0x0 DUP2 CALLDATALOAD SWAP1 POP PUSH2 0x760 DUP2 PUSH2 0x73A JUMP JUMPDEST SWAP3 SWAP2 POP POP JUMP JUMPDEST PUSH1 0x0 PUSH1 0x20 DUP3 DUP5 SUB SLT ISZERO PUSH2 0x77C JUMPI PUSH2 0x77B PUSH2 0x676 JUMP JUMPDEST JUMPDEST PUSH1 0x0 PUSH2 0x78A DUP5 DUP3 DUP6 ADD PUSH2 0x751 JUMP JUMPDEST SWAP2 POP POP SWAP3 SWAP2 POP POP JUMP JUMPDEST PUSH2 0x79C DUP2 PUSH2 0x69B JUMP JUMPDEST DUP3 MSTORE POP POP JUMP JUMPDEST PUSH1 0x0 PUSH1 0x20 DUP3 ADD SWAP1 POP PUSH2 0x7B7 PUSH1 0x0 DUP4 ADD DUP5 PUSH2 0x793 JUMP JUMPDEST SWAP3 SWAP2 POP POP JUMP JUMPDEST PUSH1 0x0 DUP3 DUP3 MSTORE PUSH1 0x20 DUP3 ADD SWAP1 POP SWAP3 SWAP2 POP POP JUMP JUMPDEST PUSH32 0x426F742074686520636F6E7472616374206F776E657200000000000000000000 PUSH1 0x0 DUP3 ADD MSTORE POP JUMP JUMPDEST PUSH1 0x0 PUSH2 0x804 PUSH1 0x16 DUP4 PUSH2 0x7BD JUMP JUMPDEST SWAP2 POP PUSH2 0x80F DUP3 PUSH2 0x7CE JUMP JUMPDEST PUSH1 0x20 DUP3 ADD SWAP1 POP SWAP2 SWAP1 POP JUMP JUMPDEST PUSH1 0x0 PUSH1 0x20 DUP3 ADD SWAP1 POP DUP2 DUP2 SUB PUSH1 0x0 DUP4 ADD MSTORE PUSH2 0x833 DUP2 PUSH2 0x7F7 JUMP JUMPDEST SWAP1 POP SWAP2 SWAP1 POP JUMP JUMPDEST PUSH32 0x436C61696D696E6720686173206E6F7420737461727465642079657400000000 PUSH1 0x0 DUP3 ADD MSTORE POP JUMP JUMPDEST PUSH1 0x0 PUSH2 0x870 PUSH1 0x1C DUP4 PUSH2 0x7BD JUMP JUMPDEST SWAP2 POP PUSH2 0x87B DUP3 PUSH2 0x83A JUMP JUMPDEST PUSH1 0x20 DUP3 ADD SWAP1 POP SWAP2 SWAP1 POP JUMP JUMPDEST PUSH1 0x0 PUSH1 0x20 DUP3 ADD SWAP1 POP DUP2 DUP2 SUB PUSH1 0x0 DUP4 ADD MSTORE PUSH2 0x89F DUP2 PUSH2 0x863 JUMP JUMPDEST SWAP1 POP SWAP2 SWAP1 POP JUMP JUMPDEST PUSH32 0x436C61696D696E6720706572696F642068617320656E64656400000000000000 PUSH1 0x0 DUP3 ADD MSTORE POP JUMP JUMPDEST PUSH1 0x0 PUSH2 0x8DC PUSH1 0x19 DUP4 PUSH2 0x7BD JUMP JUMPDEST SWAP2 POP PUSH2 0x8E7 DUP3 PUSH2 0x8A6 JUMP JUMPDEST PUSH1 0x20 DUP3 ADD SWAP1 POP SWAP2 SWAP1 POP JUMP JUMPDEST PUSH1 0x0 PUSH1 0x20 DUP3 ADD SWAP1 POP DUP2 DUP2 SUB PUSH1 0x0 DUP4 ADD MSTORE PUSH2 0x90B DUP2 PUSH2 0x8CF JUMP JUMPDEST SWAP1 POP SWAP2 SWAP1 POP JUMP JUMPDEST PUSH32 0x416C726561647920636C61696D656420666F72207468652063757272656E7420 PUSH1 0x0 DUP3 ADD MSTORE PUSH32 0x7765656B00000000000000000000000000000000000000000000000000000000 PUSH1 0x20 DUP3 ADD MSTORE POP JUMP JUMPDEST PUSH1 0x0 PUSH2 0x96E PUSH1 0x24 DUP4 PUSH2 0x7BD JUMP JUMPDEST SWAP2 POP PUSH2 0x979 DUP3 PUSH2 0x912 JUMP JUMPDEST PUSH1 0x40 DUP3 ADD SWAP1 POP SWAP2 SWAP1 POP JUMP JUMPDEST PUSH1 0x0 PUSH1 0x20 DUP3 ADD SWAP1 POP DUP2 DUP2 SUB PUSH1 0x0 DUP4 ADD MSTORE PUSH2 0x99D DUP2 PUSH2 0x961 JUMP JUMPDEST SWAP1 POP SWAP2 SWAP1 POP JUMP JUMPDEST PUSH32 0x4E487B7100000000000000000000000000000000000000000000000000000000 PUSH1 0x0 MSTORE PUSH1 0x11 PUSH1 0x4 MSTORE PUSH1 0x24 PUSH1 0x0 REVERT JUMPDEST PUSH1 0x0 PUSH2 0x9DE DUP3 PUSH2 0x706 JUMP JUMPDEST SWAP2 POP PUSH2 0x9E9 DUP4 PUSH2 0x706 JUMP JUMPDEST SWAP3 POP DUP3 DUP3 SUB SWAP1 POP DUP2 DUP2 GT ISZERO PUSH2 0xA01 JUMPI PUSH2 0xA00 PUSH2 0x9A4 JUMP JUMPDEST JUMPDEST SWAP3 SWAP2 POP POP JUMP JUMPDEST PUSH1 0x0 PUSH2 0xA12 DUP3 PUSH2 0x706 JUMP JUMPDEST SWAP2 POP PUSH2 0xA1D DUP4 PUSH2 0x706 JUMP JUMPDEST SWAP3 POP DUP3 DUP3 MUL PUSH2 0xA2B DUP2 PUSH2 0x706 JUMP JUMPDEST SWAP2 POP DUP3 DUP3 DIV DUP5 EQ DUP4 ISZERO OR PUSH2 0xA42 JUMPI PUSH2 0xA41 PUSH2 0x9A4 JUMP JUMPDEST JUMPDEST POP SWAP3 SWAP2 POP POP JUMP JUMPDEST PUSH32 0x496E73756666696369656E7420636F6E74726163742062616C616E6365000000 PUSH1 0x0 DUP3 ADD MSTORE POP JUMP JUMPDEST PUSH1 0x0 PUSH2 0xA7F PUSH1 0x1D DUP4 PUSH2 0x7BD JUMP JUMPDEST SWAP2 POP PUSH2 0xA8A DUP3 PUSH2 0xA49 JUMP JUMPDEST PUSH1 0x20 DUP3 ADD SWAP1 POP SWAP2 SWAP1 POP JUMP JUMPDEST PUSH1 0x0 PUSH1 0x20 DUP3 ADD SWAP1 POP DUP2 DUP2 SUB PUSH1 0x0 DUP4 ADD MSTORE PUSH2 0xAAE DUP2 PUSH2 0xA72 JUMP JUMPDEST SWAP1 POP SWAP2 SWAP1 POP JUMP JUMPDEST PUSH1 0x0 DUP2 SWAP1 POP SWAP3 SWAP2 POP POP JUMP JUMPDEST POP JUMP JUMPDEST PUSH1 0x0 PUSH2 0xAD0 PUSH1 0x0 DUP4 PUSH2 0xAB5 JUMP JUMPDEST SWAP2 POP PUSH2 0xADB DUP3 PUSH2 0xAC0 JUMP JUMPDEST PUSH1 0x0 DUP3 ADD SWAP1 POP SWAP2 SWAP1 POP JUMP JUMPDEST PUSH1 0x0 PUSH2 0xAF1 DUP3 PUSH2 0xAC3 JUMP JUMPDEST SWAP2 POP DUP2 SWAP1 POP SWAP2 SWAP1 POP JUMP JUMPDEST PUSH32 0x526577617264207472616E73666572206661696C656400000000000000000000 PUSH1 0x0 DUP3 ADD MSTORE POP JUMP JUMPDEST PUSH1 0x0 PUSH2 0xB31 PUSH1 0x16 DUP4 PUSH2 0x7BD JUMP JUMPDEST SWAP2 POP PUSH2 0xB3C DUP3 PUSH2 0xAFB JUMP JUMPDEST PUSH1 0x20 DUP3 ADD SWAP1 POP SWAP2 SWAP1 POP JUMP JUMPDEST PUSH1 0x0 PUSH1 0x20 DUP3 ADD SWAP1 POP DUP2 DUP2 SUB PUSH1 0x0 DUP4 ADD MSTORE PUSH2 0xB60 DUP2 PUSH2 0xB24 JUMP JUMPDEST SWAP1 POP SWAP2 SWAP1 POP JUMP JUMPDEST PUSH1 0x0 PUSH1 0x60 DUP3 ADD SWAP1 POP PUSH2 0xB7C PUSH1 0x0 DUP4 ADD DUP7 PUSH2 0x710 JUMP JUMPDEST PUSH2 0xB89 PUSH1 0x20 DUP4 ADD DUP6 PUSH2 0x710 JUMP JUMPDEST PUSH2 0xB96 PUSH1 0x40 DUP4 ADD DUP5 PUSH2 0x710 JUMP JUMPDEST SWAP5 SWAP4 POP POP POP POP JUMP JUMPDEST PUSH32 0x74696D657374616D70206D757374206265206265666F72652073746172745469 PUSH1 0x0 DUP3 ADD MSTORE PUSH32 0x6D65000000000000000000000000000000000000000000000000000000000000 PUSH1 0x20 DUP3 ADD MSTORE POP JUMP JUMPDEST PUSH1 0x0 PUSH2 0xBFA PUSH1 0x22 DUP4 PUSH2 0x7BD JUMP JUMPDEST SWAP2 POP PUSH2 0xC05 DUP3 PUSH2 0xB9E JUMP JUMPDEST PUSH1 0x40 DUP3 ADD SWAP1 POP SWAP2 SWAP1 POP JUMP JUMPDEST PUSH1 0x0 PUSH1 0x20 DUP3 ADD SWAP1 POP DUP2 DUP2 SUB PUSH1 0x0 DUP4 ADD MSTORE PUSH2 0xC29 DUP2 PUSH2 0xBED JUMP JUMPDEST SWAP1 POP SWAP2 SWAP1 POP JUMP JUMPDEST PUSH32 0x4E487B7100000000000000000000000000000000000000000000000000000000 PUSH1 0x0 MSTORE PUSH1 0x12 PUSH1 0x4 MSTORE PUSH1 0x24 PUSH1 0x0 REVERT JUMPDEST PUSH1 0x0 PUSH2 0xC6A DUP3 PUSH2 0x706 JUMP JUMPDEST SWAP2 POP PUSH2 0xC75 DUP4 PUSH2 0x706 JUMP JUMPDEST SWAP3 POP DUP3 PUSH2 0xC85 JUMPI PUSH2 0xC84 PUSH2 0xC30 JUMP JUMPDEST JUMPDEST DUP3 DUP3 DIV SWAP1 POP SWAP3 SWAP2 POP POP JUMP JUMPDEST PUSH1 0x0 PUSH2 0xC9B DUP3 PUSH2 0x706 JUMP JUMPDEST SWAP2 POP PUSH2 0xCA6 DUP4 PUSH2 0x706 JUMP JUMPDEST SWAP3 POP DUP3 DUP3 ADD SWAP1 POP DUP1 DUP3 GT ISZERO PUSH2 0xCBE JUMPI PUSH2 0xCBD PUSH2 0x9A4 JUMP JUMPDEST JUMPDEST SWAP3 SWAP2 POP POP JUMP INVALID LOG2 PUSH5 0x6970667358 0x22 SLT KECCAK256 BLOBHASH PUSH7 0x3D76008B19808F 0xF6 CREATE2 CALLER MSIZE JUMP SGT PUSH15 0xBFF16A2F0A083CFACA479EC028C015 0x28 PUSH5 0x736F6C6343 STOP ADDMOD SHL STOP CALLER "},"methodIdentifiers":{"claim()":"4e71d92d","endTime()":"3197cbb6","getWeekNumber(uint256)":"8cbe096e","lastClaimedWeek(address)":"1bfca4df","owner()":"8da5cb5b","startTime()":"78e97925","weeklyReward()":"da0adedf","withdraw(uint256)":"2e1a7d4d"}}}}}